:020000040800F2
:10000000600600206D0100087501000877010008F6
:10001000790100087B0100087D0100080000000054
:100020000000000000000000000000007F01000848
:10003000810100080000000083010008850100081C
:100040008701000887010008870100088701000870
:100050008701000887010008870100088701000860
:100060008701000887010008870100088701000850
:100070008701000887010008870100088701000840
:100080008701000887010008870100088701000830
:100090008701000887010008870100088701000820
:1000A0008701000887010008870100088701000810
:1000B0008701000887010008870100088701000800
:1000C00087010008870100088701000887010008F0
:1000D00087010008870100088701000887010008E0
:1000E00087010008870100088701000800F002F876
:1000F00000F02CF80AA090E8000C82448344AAF196
:100100000107DA4501D100F021F8AFF2090EBAE893
:100110000F0013F0010F18BFFB1A43F0010318473B
:10012000740300008403000000230024002500263F
:10013000103A28BF78C1FBD8520728BF30C148BF4A
:100140000B6070471FB51FBD10B510BD00F031F832
:100150001146FFF7F7FF00F07DF900F04FF803B408
:10016000FFF7F2FF03BC00F057F800000948804792
:1001700009480047FEE7FEE7FEE7FEE7FEE7FEE789
:10018000FEE7FEE7FEE7FEE704480549054A064BA1
:1001900070470000D7030008ED0000086000002051
:1001A0006006002060020020600200207047704757
:1001B0007047754600F02CF8AE4605006946534678
:1001C00020F00700854618B020B5FFF7DDFFBDE839
:1001D00020404FF000064FF000074FF000084FF0AE
:1001E000000B21F00701AC46ACE8C009ACE8C0093F
:1001F000ACE8C009ACE8C0098D46704710B50446AC
:10020000AFF300802046BDE81040FFF7A8BF000014
:10021000004870470000002001491820ABBEFEE7EF
:10022000260002007047000008B5002000903F48FB
:10023000406820F4701000F5E0103C494860084622
:10024000006820F4803000F58030086000200090C5
:1002500002E00098401C009034480068C0F3404021
:1002600010B900983228F4DB3048406820F4803020
:1002700000F580302D4948600846006820F0807005
:1002800000F1807008600020009002E00098401C9F
:10029000009026480068C0F3406010B900983228EA
:1002A000F4DB2348006820F010001030204908607B
:1002B0000846006820F00700801C08601B48406862
:1002C00020F00300801C194948600020009002E0E3
:1002D0000098401C009015480079C0F38100022866
:1002E00002D000983228F3DB1048406820F0F0007C
:1002F0000E4948600846406820F4E06000F58060E0
:1003000048600846406820F46050486008464068ED
:1003100020F4404000F5004048600846406820F462
:10032000800000F58000486008BD00000010024019
:10033000002002400548007EC0084FF0FF3103480E
:10034000806961F3C3000149886170470010024071
:100350000548007F80084FF0FF310348C06961F312
:1003600082000149C861704700100240F0B50C4698
:10037000154600210022002310E009011201012688
:100380009E4026400EB1294301E042F00F0206686C
:100390001640066006680E4306605B1C082BECDB0B
:1003A00000210022002313E00901120103F10806D5
:1003B000012707FA06F626400EB1294301E042F074
:1003C0000F0246681640466046680E4346605B1C56
:1003D000082BE9DBF0BD7047C36803EA01020AB1EC
:1003E000416100E00161704700200449086000BFDE
:1003F00002480068B0F57A7FFAD3704724080040BD
:1004000010B5FFF7A5FF47200C4908604FF6FF70B5
:10041000091D086009482838006820F00100401CC8
:1004200006492839086005481438006820F00100A2
:10043000401C02491439086010BD00002808004023
:1004400000B5024602E0FFF7CFFF521E002AFAD1A4
:1004500000BD0000FFF7E8FEFFF76CFF0222042159
:100460000B48FFF783FF022211460948FFF77EFF82
:10047000FFF7C6FF0BE004210548FFF7ADFF02219F
:100480000348FFF7A9FF4FF47A70FFF7D9FFF2E7AF
:10049000000C0140A40400080000002060060000D9
:0404A0002801000827
:04000005080000ED02
:00000001FF
